:1000000003308A00FD2B0000FF00030E8301A100D6
:100010000A08A0008A010408A2007708A300780853
:10002000A4007908A5007A08A60003170D08031399
:10003000A70003170F080313A80003170C080313E6
:10004000A90003170E080313AA00831383128B1D44
:100050002B280B184C28220884002308F7002408BA
:10006000F8002508F9002608FA00270803178D0074
:100070000313280803178F000313290803178C00A4
:1000800003132A0803178E00031320088A00210E89
:100090008300FF0E7F0E09008A110A126B280A10D6
:1000A0008A100A11820728340C34013406345F3078
:1000B00084008313000803196A280630F800F7014A
:1000C000F70B6028F80B5F287B30F700F70B6628EA
:1000D000800B5D280800831686178312861B7D28F7
:1000E0000230DE009630DF005720DE0B7228013030
:1000F000AC072C08043C031CAC010B108A110A123B
:100100002B28C427A0204E103300CE23D52C452702
:10011000CD244E24C42741274800C82A3A10A53AC6
:10012000AC127500D4223A10A53AAC1275004B10EF
:10013000C4274310C42ACF21A02354294900C32037
:100140004910C42054104E22A026412C0001C7247F
:1001500041105429491D25320000C3204910C420F4
:1001600054104E22A02649270001C72441105429CB
:10017000491D25320001C3204910C4205410C82A4B
:10018000A026412C0001C72441105429491D2532C5
:100190000001C3204910C4205410C82AA0264927B2
:1001A0000001C72441105429491D25320000523056
:1001B0008400831300080319EA280630F800F701C9
:1001C000F70BE028F80BDF287B30F700F70BE62869
:1001D000800BDD2808005918EF280812F0280816AF
:1001E000831608128312D918F7288812F82888165F
:1001F0008316881283125919FF280813002908173B
:10020000831608138312D919072988130829881718
:100210008316881300008312881583168811033013
:10022000F700F70B112983128811831688118312A6
:100230000800DA018316081600308312081A01300C
:10024000DA048316881600308312881A0130F7000A
:100250000310F70D7708DA048316081700308312AD
:10026000081B0130F700F70DF70DFC30F705770894
:10027000DA048316881700308312881B0130F700D8
:10028000F70DF70DF70DF830F7057708DA045A087F
:10029000F8000800881083168810081688160817BA
:1002A0008817831208158316081100008312881519
:1002B000831688110000831219217808D90088114B
:1002C0008316881100008312881583168811000098
:1002D000831219217808D800881183168811081212
:1002E0008812081388138312590EF700F030F705AF
:1002F00077085804F8007808D800D81F8129831699
:100300004D29D608031D862988108729881483164D
:100310008810000083120811831608110000831250
:100320008811831688118312570ED8000F30D80514
:100330005808D900EB2057080F39D800D900EB2016
:100340000800831608128812081388138811881071
:1003500008118312881083168810831208118316DF
:10036000081183128811831688110F308312D2006E
:10037000D7200130CB004B08033C031CC7290330B6
:10038000D900EB200530D200D720CB0ABB290230A0
:10039000D900EB20CB014B08033C031CD8294B08A8
:1003A0004F20CC00D6014C08D7004A21CB0ACB29DC
:1003B0008A110A12152C530BDF29D401F329530893
:1003C000023C031DE6294030D400F3295308033CC6
:1003D000031DED291430D400F3295308043C031DF8
:1003E000F3295430D40001305202D4075408803825
:1003F000D500D6015508D7004A21080051080C3A0B
:100400000319092A063A0319112A023A0319172A6D
:100410001C2AD6010130D7004A210230D200D72051
:10042000212A0130D2000230D300DB21212AD6015B
:100430001030D7004A21212A0130D6005108D700B8
:100440004A2108000B08CB008B13831603178C1767
:100450000C140000000083120313CB1B8B1703172F
:100460000C087F390319762A0313CB0003170D08F4
:100470000313CC0003170F080313CD004B08D10062
:10048000FE214C0803178D0003134D0803178F003E
:1004900003130B08CE008B13831603178C170C1451
:1004A0000000000083120313CE1B8B1703170C0DE3
:1004B0000E0D7F390319762A0313CB0003170D089D
:1004C0000313CC0003170F080313CD004B08D10012
:1004D000FE214C0803178D0003134D0803178F00EE
:1004E0008D0A03198F0A0313222A03170313080026
:1004F0000130D200D300DB210C30D100FE210800F6
:10050000310884008313321883174F088000840A4F
:100510008001B10A0319B20A08000B08CC008B1342
:10052000831603178C170C140000000083120313AA
:10053000CC1B8B170318C42A03170C087F3903132D
:10054000CC0003170D080313CD0003170F08031386
:10055000CE004C08CF0080224D0803178D000313F6
:100560004E0803178F0003130B08CF008B1383165D
:1005700003178C170C140000000083120313CF1B09
:100580008B17CB0BC42AE32A03170C0D0E0D7F39F2
:100590000313CC0003170D080313CD0003170F0836
:1005A0000313CE004C08CF0080224D0803178D00A6
:1005B00003134E0803178F008D0A03198F0A0310C7
:1005C0000313CB0B8D2A08005208F80151020318BF
:1005D000EC2A5108F700F82AF7010830D300D10DB2
:1005E000F70D520877020318F700F80DD30BEF2A26
:1005F000080078084B08D1006430D200E422770864
:10060000CB0078083030031D0C2BCC1C132BCC19DD
:10061000132B4C1A20300F2BCC114C124C14F80712
:100620007808CF0080224B08D1000A30D200E422A3
:100630007708CB0078083030031D242BCC19282BE9
:100640004C1C282B4C1A2030F8077808CF00802249
:100650003030CB074B08CF008022080080080319F8
:10066000432BCC010408CB004C10831B4C14000816
:10067000D100FE214B08840083134C188317840A91
:100680000319850A2E2B080020304C1E3030CD0077
:100690004B08F700CB1F542BF709F70A7708CB005C
:1006A0002D30CD00CC174C144B08D1006430D20053
:1006B000E4227708CB0030307807CE004B08D10019
:1006C0000A30D200E42230307707D000303078078B
:1006D000CF004D08F70030304E020319732BCC14B5
:1006E000CC1B4C15872B4D08CE002030CD00303070
:1006F0004F0203197F2B4C14CC1BCC14872B031DEA
:100700004C14031D872B4E08CF002030CE004C190F
:100710008E2BCC18912B4C18942B972B4D08D10075
:10072000FE214E08D100FE214F08D100FE215008C5
:10073000D100FE2108000130D200D300DB210800E7
:100740000130D2000230D300DB2108000B08CC00BE
:100750008B13831603178C170C14000000008312F0
:100760000313CC1B8B170318DD2B03170C087F39E1
:100770000313CC0003170D080313CD0003170F0854
:100780000313CE004C08D100FE214D0803178D0045
:1007900003134E0803178F0003130B08CF008B13AE
:1007A000831603178C170C14000000008312031328
:1007B000CF1B8B17CB0BDD2BFC2B03170C0D0E0D5A
:1007C0007F390313CC0003170D080313CD00031763
:1007D0000F080313CE004C08D100FE214D0803176B
:1007E0008D0003134E0803178F008D0A03198F0A1B
:1007F00003100313CB0BA62B080003081F3983003B
:10080000AC011E30AD001930AE004130AF003C30BD
:10081000B000B201B10183161F149F141F159F1160
:1008200007309C0083138312A1290C30D100FE21D4
:100830008316811383128B15C0308B040910831625
:100840000910831289108316891005308312D20093
:100850000130D300DB21813003178D0000308F0081
:10086000031322220230D200D300DB21853003178C
:100870008D0000308F00031322220830CB00AB0123
:100880008B1BAB178B13FA30DF005720AB1B8B177A
:10089000CB0B3F2C0430CB00AB018B1BAB178B1366
:1008A000FA30DF005720AB1B8B17CB0B4C2C0C30D6
:1008B000D100FE217822AC08031D872DCB01CC018D
:1008C000CD01CE01CF0183160610831206146330CA
:1008D000F700F70B692C6C2C0610AB018B1BAB17C8
:1008E0008B131930DF005720AB1B8B1706148316B0
:1008F00006146330F700F70B7B2C7E2C8312061C4A
:10090000852C0030F800D52C872C061C852C6330F4
:10091000F700F70B892C8C2C0618922C0030F8006D
:10092000D52C942C0618922CD1015108043C031CA0
:10093000BF2CD0015008073C031CBD2C061C9E2C6C
:100940005330F700F70BA22C061CBB2C4B30510781
:10095000840083135008073CF8000130F700F808C2
:100960000319B62C0310F70DF80BB22C770800040E
:1009700080000618B92CD00A9A2CD10A952C4C0864
:100980004B074D074E07D2004F0852020319CB2CDC
:100990000030F800D52C4D08B3004E08B4004B08C9
:1009A000B5004C08B6000130F800F80803194A2DCC
:1009B000B2013730B1008D3003178D0000308F0049
:1009C000031004300313CB008D223508CB001B30FD
:1009D000CC00F9222C30CF0080223608CB001B300F
:1009E000CC00F9220130D200D300DB213730840063
:1009F00083132E232530D100FE212030D100FE218B
:100A00003008CB001830CC0044232D30D100FE211B
:100A10002F08CB001830CC0044232530D100FE2114
:100A2000B2013730B100923003178D0000308F00D3
:100A3000031004300313CB008D223308CB001B308E
:100A4000CC00F9222C30CF0080223408CB001B30A0
:100A5000CC00F9220130D2000230D300DB21373044
:100A6000840083132E23DF30D100FE212030D100FB
:100A7000FE212E08CB001830CC0044232D30D100AD
:100A8000FE212D08CB001830CC004423DF30D100EC
:100A9000FE21552D973003178D0000308F00031372
:100AA00022220130D200D300DB212D083302031CA7
:100AB0005D2D350830020318652D2D083302031C07
:100AC0006E2D2F083502031C6E2D09148316091094
:100AD0008312891483168910852D831233082E0200
:100AE000031C762D2F08350203187E2D33082E02A5
:100AF000031C862D35082F02031C862D0910831632
:100B00000910831289108316891083125B2C7822B6
:100B10002C0BCC2D9B239F3003178D0000308F00B2
:100B200003132222A023A73003178D0000308F006B
:100B3000031008300313CB00A6232D08CB00183078
:100B4000CC0044238316051483120518B52D831693
:100B500005148312051CA72D0130AD072D08283C74
:100B60000318B42D1E30AD00CB2D831685148312CF
:100B70008518CB2D831685148312851CBA2D013060
:100B8000AD022D08133C0318C92D2D082E02031C9D
:100B9000CB2D1A30AD00882D78222C08023C031D85
:100BA000132E9B23AD3003178D0000308F000313ED
:100BB0002222A023B53003178D0000308F000310D0
:100BC00008300313CB00A6232E08CB001830CC002E
:100BD00044238316051483120518002E831605146A
:100BE0008312051CEE2D0130AE072E08233C031C9A
:100BF000FD2D2D082E02031CFF2D1430AE00122EE9
:100C00008316851483128518122E83168514831279
:100C1000851C052E0130AE022E080E3C031C122E40
:100C20001430AE00CD2D78222C08033C031D5D2E20
:100C30009B23BB3003178D0000308F00031322224B
:100C4000A023C33003178D0000308F00031008303D
:100C50000313CB00A6232F08CB001830CC0044236D
:100C60002530D100FE218316051483120518462E67
:100C7000831605148312051C382E0130AF072F0888
:100C8000633C0318452E4630AF005C2E8316851456
:100C9000831285185C2E831685148312851C4B2EB7
:100CA0000130AF022F08313C03185A2E2F083002B2
:100CB000031C5C2E4630AF00142E78222C08043C16
:100CC000031DA72E9B23C93003178D0000308F0012
:100CD00003132222A023D13003178D0000308F0090
:100CE000031008300313CB00A6233008CB001830C4
:100CF000CC0044232530D100FE2183160514831235
:100D00000518942E831605148312051C822E0130BB
:100D1000B0073008553C031C912E2F083002031CED
:100D2000932E3730B000A62E8316851483128518B3
:100D3000A62E831685148312851C992E0130B002CD
:100D40003008273C031CA62E3730B0005E2E5A2CEC
:020D500063003E
:02400E00323F3F
:00000001FF
;PIC16F877A
;CRC=3ABC  CREATED="11-Thg1-23 13:47"
